{
  "_format": "hh-sol-artifact-1",
  "contractName": "FlashLoanReceiver",
  "sourceName": "contracts/FlashLoandReceiver.sol",
  "abi": [
    {
      "inputs": [
        {
          "internalType": "address",
          "name": "_poolAddress",
          "type": "address"
        }
      ],
      "stateMutability": "nonpayable",
      "type": "constructor"
    },
    {
      "inputs": [
        {
          "internalType": "uint256",
          "name": "_amount",
          "type": "uint256"
        }
      ],
      "name": "executeFlashLoan",
      "outputs": [],
      "stateMutability": "nonpayable",
      "type": "function"
    },
    {
      "inputs": [
        {
          "internalType": "address",
          "name": "_tokenAddress",
          "type": "address"
        },
        {
          "internalType": "uint256",
          "name": "_amount",
          "type": "uint256"
        }
      ],
      "name": "receiveTokens",
      "outputs": [],
      "stateMutability": "nonpayable",
      "type": "function"
    }
  ],
  "bytecode": "0x608060405234801561001057600080fd5b506040516107183803806107188339818101604052810190610032919061011c565b806000806101000a81548173ffffffffffffffffffffffffffffffffffffffff021916908373ffffffffffffffffffffffffffffffffffffffff16021790555033600160006101000a81548173ffffffffffffffffffffffffffffffffffffffff021916908373ffffffffffffffffffffffffffffffffffffffff16021790555050610149565b600080fd5b600073ffffffffffffffffffffffffffffffffffffffff82169050919050565b60006100e9826100be565b9050919050565b6100f9816100de565b811461010457600080fd5b50565b600081519050610116816100f0565b92915050565b600060208284031215610132576101316100b9565b5b600061014084828501610107565b91505092915050565b6105c0806101586000396000f3fe608060405234801561001057600080fd5b50600436106100365760003560e01c8063357291301461003b578063fb056f6814610057575b600080fd5b6100556004803603810190610050919061036f565b610073565b005b610071600480360381019061006c91906103af565b6100ed565b005b6100e96040518060400160405280600d81526020017f5f746f6b656e4164647265737300000000000000000000000000000000000000815250836040518060400160405280600781526020017f5f616d6f756e74000000000000000000000000000000000000000000000000008152508461020b565b5050565b600160009054906101000a900473ffffffffffffffffffffffffffffffffffffffff1673ffffffffffffffffffffffffffffffffffffffff163373ffffffffffffffffffffffffffffffffffffffff161461017d576040517f08c379a00000000000000000000000000000000000000000000000000000000081526004016101749061045f565b60405180910390fd5b60008054906101000a900473ffffffffffffffffffffffffffffffffffffffff1673ffffffffffffffffffffffffffffffffffffffff16639ab603b9826040518263ffffffff1660e01b81526004016101d6919061048e565b600060405180830381600087803b1580156101f057600080fd5b505af1158015610204573d6000803e3d6000fd5b5050505050565b6102a7848484846040516024016102259493929190610537565b6040516020818303038152906040527f91d1112e000000000000000000000000000000000000000000000000000000007bffffffffffffffffffffffffffffffffffffffffffffffffffffffff19166020820180517bffffffffffffffffffffffffffffffffffffffffffffffffffffffff83818316178352505050506102ad565b50505050565b60008151905060006a636f6e736f6c652e6c6f679050602083016000808483855afa5050505050565b600080fd5b600073ffffffffffffffffffffffffffffffffffffffff82169050919050565b6000610306826102db565b9050919050565b610316816102fb565b811461032157600080fd5b50565b6000813590506103338161030d565b92915050565b6000819050919050565b61034c81610339565b811461035757600080fd5b50565b60008135905061036981610343565b92915050565b60008060408385031215610386576103856102d6565b5b600061039485828601610324565b92505060206103a58582860161035a565b9150509250929050565b6000602082840312156103c5576103c46102d6565b5b60006103d38482850161035a565b91505092915050565b600082825260208201905092915050565b7f6f6e6c79206f776e65722063616e206578656375746520666c617368206c6f6160008201527f6e00000000000000000000000000000000000000000000000000000000000000602082015250565b60006104496021836103dc565b9150610454826103ed565b604082019050919050565b600060208201905081810360008301526104788161043c565b9050919050565b61048881610339565b82525050565b60006020820190506104a3600083018461047f565b92915050565b600081519050919050565b60005b838110156104d25780820151818401526020810190506104b7565b60008484015250505050565b6000601f19601f8301169050919050565b60006104fa826104a9565b61050481856103dc565b93506105148185602086016104b4565b61051d816104de565b840191505092915050565b610531816102fb565b82525050565b6000608082019050818103600083015261055181876104ef565b90506105606020830186610528565b818103604083015261057281856104ef565b9050610581606083018461047f565b9594505050505056fea264697066735822122004647a27d4abdf1b1011c6550edf4d5dd006bca7ad51a7dd233efc538b14a79564736f6c63430008110033",
  "linkReferences": {},
  "deployedLinkReferences": {}
}