{
  "_format": "hh-sol-artifact-1",
  "contractName": "FlashLoan",
  "sourceName": "contracts/FlashLoan.sol",
  "abi": [
    {
      "inputs": [
        {
          "internalType": "address",
          "name": "_tokenAddress",
          "type": "address"
        }
      ],
      "stateMutability": "nonpayable",
      "type": "constructor"
    },
    {
      "inputs": [
        {
          "internalType": "uint256",
          "name": "_amount",
          "type": "uint256"
        }
      ],
      "name": "depositTokens",
      "outputs": [],
      "stateMutability": "nonpayable",
      "type": "function"
    },
    {
      "inputs": [
        {
          "internalType": "uint256",
          "name": "_borrowAmount",
          "type": "uint256"
        }
      ],
      "name": "flashLoan",
      "outputs": [],
      "stateMutability": "nonpayable",
      "type": "function"
    },
    {
      "inputs": [],
      "name": "poolBalance",
      "outputs": [
        {
          "internalType": "uint256",
          "name": "",
          "type": "uint256"
        }
      ],
      "stateMutability": "view",
      "type": "function"
    },
    {
      "inputs": [],
      "name": "token",
      "outputs": [
        {
          "internalType": "contract Token",
          "name": "",
          "type": "address"
        }
      ],
      "stateMutability": "view",
      "type": "function"
    }
  ],
  "bytecode": "0x608060405234801561001057600080fd5b50604051610775380380610775833981810160405281019061003291906100db565b806000806101000a81548173ffffffffffffffffffffffffffffffffffffffff021916908373ffffffffffffffffffffffffffffffffffffffff16021790555050610108565b600080fd5b600073ffffffffffffffffffffffffffffffffffffffff82169050919050565b60006100a88261007d565b9050919050565b6100b88161009d565b81146100c357600080fd5b50565b6000815190506100d5816100af565b92915050565b6000602082840312156100f1576100f0610078565b5b60006100ff848285016100c6565b91505092915050565b61065e806101176000396000f3fe608060405234801561001057600080fd5b506004361061004c5760003560e01c806396365d44146100515780639ab603b91461006f578063dd49756e1461008b578063fc0c546a146100a7575b600080fd5b6100596100c5565b604051610066919061034f565b60405180910390f35b6100896004803603810190610084919061039b565b6100cb565b005b6100a560048036038101906100a0919061039b565b6101fa565b005b6100af6102fc565b6040516100bc9190610447565b60405180910390f35b60015481565b60008054906101000a900473ffffffffffffffffffffffffffffffffffffffff1673ffffffffffffffffffffffffffffffffffffffff1663a9059cbb33836040518363ffffffff1660e01b8152600401610126929190610483565b6020604051808303816000875af1158015610145573d6000803e3d6000fd5b505050506040513d601f19601f8201168201806040525081019061016991906104e4565b503373ffffffffffffffffffffffffffffffffffffffff16633572913060008054906101000a900473ffffffffffffffffffffffffffffffffffffffff16836040518363ffffffff1660e01b81526004016101c5929190610483565b600060405180830381600087803b1580156101df57600080fd5b505af11580156101f3573d6000803e3d6000fd5b5050505050565b6000811161023d576040517f08c379a00000000000000000000000000000000000000000000000000000000081526004016102349061056e565b60405180910390fd5b60008054906101000a900473ffffffffffffffffffffffffffffffffffffffff1673ffffffffffffffffffffffffffffffffffffffff166323b872dd3330846040518463ffffffff1660e01b815260040161029a9392919061058e565b6020604051808303816000875af11580156102b9573d6000803e3d6000fd5b505050506040513d601f19601f820116820180604052508101906102dd91906104e4565b506102f38160015461032090919063ffffffff16565b60018190555050565b60008054906101000a900473ffffffffffffffffffffffffffffffffffffffff1681565b6000818361032e91906105f4565b905092915050565b6000819050919050565b61034981610336565b82525050565b60006020820190506103646000830184610340565b92915050565b600080fd5b61037881610336565b811461038357600080fd5b50565b6000813590506103958161036f565b92915050565b6000602082840312156103b1576103b061036a565b5b60006103bf84828501610386565b91505092915050565b600073ffffffffffffffffffffffffffffffffffffffff82169050919050565b6000819050919050565b600061040d610408610403846103c8565b6103e8565b6103c8565b9050919050565b600061041f826103f2565b9050919050565b600061043182610414565b9050919050565b61044181610426565b82525050565b600060208201905061045c6000830184610438565b92915050565b600061046d826103c8565b9050919050565b61047d81610462565b82525050565b60006040820190506104986000830185610474565b6104a56020830184610340565b9392505050565b60008115159050919050565b6104c1816104ac565b81146104cc57600080fd5b50565b6000815190506104de816104b8565b92915050565b6000602082840312156104fa576104f961036a565b5b6000610508848285016104cf565b91505092915050565b600082825260208201905092915050565b7f4d757374206465706f736974206174206c65617374206f6e6520746f6b656e00600082015250565b6000610558601f83610511565b915061056382610522565b602082019050919050565b600060208201905081810360008301526105878161054b565b9050919050565b60006060820190506105a36000830186610474565b6105b06020830185610474565b6105bd6040830184610340565b949350505050565b7f4e487b7100000000000000000000000000000000000000000000000000000000600052601160045260246000fd5b60006105ff82610336565b915061060a83610336565b9250828201905080821115610622576106216105c5565b5b9291505056fea2646970667358221220aab894a301c407042a67c9d39a701fca3685af0c1fead958fb426a861235435e64736f6c63430008110033",
  "linkReferences": {},
  "deployedLinkReferences": {}
}