{
  "_format": "hh-sol-artifact-1",
  "contractName": "Namecount",
  "sourceName": "contracts/Namecount.sol",
  "abi": [
    {
      "inputs": [
        {
          "internalType": "string",
          "name": "_samsung",
          "type": "string"
        },
        {
          "internalType": "uint256",
          "name": "_initialNumber",
          "type": "uint256"
        }
      ],
      "stateMutability": "nonpayable",
      "type": "constructor"
    },
    {
      "inputs": [
        {
          "internalType": "string",
          "name": "_addNumber",
          "type": "string"
        }
      ],
      "name": "Addnumber",
      "outputs": [
        {
          "internalType": "string",
          "name": "Addnumber",
          "type": "string"
        }
      ],
      "stateMutability": "nonpayable",
      "type": "function"
    },
    {
      "inputs": [],
      "name": "Cellnumber",
      "outputs": [
        {
          "internalType": "string",
          "name": "",
          "type": "string"
        }
      ],
      "stateMutability": "view",
      "type": "function"
    },
    {
      "inputs": [],
      "name": "Decrease",
      "outputs": [],
      "stateMutability": "nonpayable",
      "type": "function"
    },
    {
      "inputs": [],
      "name": "PhoneNumber",
      "outputs": [
        {
          "internalType": "string",
          "name": "Digits",
          "type": "string"
        }
      ],
      "stateMutability": "view",
      "type": "function"
    },
    {
      "inputs": [],
      "name": "getContact",
      "outputs": [
        {
          "internalType": "string",
          "name": "Contacts",
          "type": "string"
        }
      ],
      "stateMutability": "view",
      "type": "function"
    },
    {
      "inputs": [],
      "name": "increaseNumber",
      "outputs": [],
      "stateMutability": "nonpayable",
      "type": "function"
    },
    {
      "inputs": [
        {
          "internalType": "string",
          "name": "_newContact",
          "type": "string"
        }
      ],
      "name": "newContact",
      "outputs": [
        {
          "internalType": "string",
          "name": "newContact",
          "type": "string"
        }
      ],
      "stateMutability": "nonpayable",
      "type": "function"
    },
    {
      "inputs": [],
      "name": "number",
      "outputs": [
        {
          "internalType": "uint256",
          "name": "",
          "type": "uint256"
        }
      ],
      "stateMutability": "view",
      "type": "function"
    },
    {
      "inputs": [],
      "name": "samsung",
      "outputs": [
        {
          "internalType": "string",
          "name": "",
          "type": "string"
        }
      ],
      "stateMutability": "view",
      "type": "function"
    }
  ],
  "bytecode": "0x60806040523480156200001157600080fd5b506040516200115438038062001154833981810160405281019062000037919062000226565b8160009081620000489190620004cd565b50806002819055505050620005b4565b6000604051905090565b600080fd5b600080fd5b600080fd5b600080fd5b6000601f19601f8301169050919050565b7f4e487b7100000000000000000000000000000000000000000000000000000000600052604160045260246000fd5b620000c18262000076565b810181811067ffffffffffffffff82111715620000e357620000e262000087565b5b80604052505050565b6000620000f862000058565b9050620001068282620000b6565b919050565b600067ffffffffffffffff82111562000129576200012862000087565b5b620001348262000076565b9050602081019050919050565b60005b838110156200016157808201518184015260208101905062000144565b60008484015250505050565b6000620001846200017e846200010b565b620000ec565b905082815260208101848484011115620001a357620001a262000071565b5b620001b084828562000141565b509392505050565b600082601f830112620001d057620001cf6200006c565b5b8151620001e28482602086016200016d565b91505092915050565b6000819050919050565b6200020081620001eb565b81146200020c57600080fd5b50565b6000815190506200022081620001f5565b92915050565b6000806040838503121562000240576200023f62000062565b5b600083015167ffffffffffffffff81111562000261576200026062000067565b5b6200026f85828601620001b8565b925050602062000282858286016200020f565b9150509250929050565b600081519050919050565b7f4e487b7100000000000000000000000000000000000000000000000000000000600052602260045260246000fd5b60006002820490506001821680620002df57607f821691505b602082108103620002f557620002f462000297565b5b50919050565b60008190508160005260206000209050919050565b60006020601f8301049050919050565b600082821b905092915050565b6000600883026200035f7fffffffffffffffffffffffffffffffffffffffffffffffffffffffffffffffff8262000320565b6200036b868362000320565b95508019841693508086168417925050509392505050565b6000819050919050565b6000620003ae620003a8620003a284620001eb565b62000383565b620001eb565b9050919050565b6000819050919050565b620003ca836200038d565b620003e2620003d982620003b5565b8484546200032d565b825550505050565b600090565b620003f9620003ea565b62000406818484620003bf565b505050565b5b818110156200042e5762000422600082620003ef565b6001810190506200040c565b5050565b601f8211156200047d576200044781620002fb565b620004528462000310565b8101602085101562000462578190505b6200047a620004718562000310565b8301826200040b565b50505b505050565b600082821c905092915050565b6000620004a26000198460080262000482565b1980831691505092915050565b6000620004bd83836200048f565b9150826002028217905092915050565b620004d8826200028c565b67ffffffffffffffff811115620004f457620004f362000087565b5b620005008254620002c6565b6200050d82828562000432565b600060209050601f83116001811462000545576000841562000530578287015190505b6200053c8582620004af565b865550620005ac565b601f1984166200055586620002fb565b60005b828110156200057f5784890151825560018201915060208501945060208101905062000558565b868310156200059f57848901516200059b601f8916826200048f565b8355505b6001600288020188555050505b505050505050565b610b9080620005c46000396000f3fe608060405234801561001057600080fd5b50600436106100935760003560e01c80636fe1a6d0116100665780636fe1a6d0146100e85780638381f58a146101185780638ab3d8301461013657806399b6565e146101665780639f0f7ea21461018457610093565b80631db10fba1461009857806330bae970146100b65780633530a145146100d45780635b4ef819146100de575b600080fd5b6100a06101a2565b6040516100ad91906105f4565b60405180910390f35b6100be610234565b6040516100cb91906105f4565b60405180910390f35b6100dc6102c2565b005b6100e66102dc565b005b61010260048036038101906100fd919061075f565b6102f6565b60405161010f91906105f4565b60405180910390f35b61012061039a565b60405161012d91906107c1565b60405180910390f35b610150600480360381019061014b919061075f565b6103a0565b60405161015d91906105f4565b60405180910390f35b61016e610444565b60405161017b91906105f4565b60405180910390f35b61018c6104d6565b60405161019991906105f4565b60405180910390f35b6060600080546101b19061080b565b80601f01602080910402602001604051908101604052809291908181526020018280546101dd9061080b565b801561022a5780601f106101ff5761010080835404028352916020019161022a565b820191906000526020600020905b81548152906001019060200180831161020d57829003601f168201915b5050505050905090565b600180546102419061080b565b80601f016020809104026020016040519081016040528092919081815260200182805461026d9061080b565b80156102ba5780601f1061028f576101008083540402835291602001916102ba565b820191906000526020600020905b81548152906001019060200180831161029d57829003601f168201915b505050505081565b600260008154809291906102d59061086b565b9190505550565b600260008154809291906102ef90610894565b9190505550565b606081600190816103079190610a88565b50600180546103159061080b565b80601f01602080910402602001604051908101604052809291908181526020018280546103419061080b565b801561038e5780601f106103635761010080835404028352916020019161038e565b820191906000526020600020905b81548152906001019060200180831161037157829003601f168201915b50505050509050919050565b60025481565b606081600090816103b19190610a88565b50600080546103bf9061080b565b80601f01602080910402602001604051908101604052809291908181526020018280546103eb9061080b565b80156104385780601f1061040d57610100808354040283529160200191610438565b820191906000526020600020905b81548152906001019060200180831161041b57829003601f168201915b50505050509050919050565b6060600180546104539061080b565b80601f016020809104026020016040519081016040528092919081815260200182805461047f9061080b565b80156104cc5780601f106104a1576101008083540402835291602001916104cc565b820191906000526020600020905b8154815290600101906020018083116104af57829003601f168201915b5050505050905090565b600080546104e39061080b565b80601f016020809104026020016040519081016040528092919081815260200182805461050f9061080b565b801561055c5780601f106105315761010080835404028352916020019161055c565b820191906000526020600020905b81548152906001019060200180831161053f57829003601f168201915b505050505081565b600081519050919050565b600082825260208201905092915050565b60005b8381101561059e578082015181840152602081019050610583565b60008484015250505050565b6000601f19601f8301169050919050565b60006105c682610564565b6105d0818561056f565b93506105e0818560208601610580565b6105e9816105aa565b840191505092915050565b6000602082019050818103600083015261060e81846105bb565b905092915050565b6000604051905090565b600080fd5b600080fd5b600080fd5b600080fd5b7f4e487b7100000000000000000000000000000000000000000000000000000000600052604160045260246000fd5b61066c826105aa565b810181811067ffffffffffffffff8211171561068b5761068a610634565b5b80604052505050565b600061069e610616565b90506106aa8282610663565b919050565b600067ffffffffffffffff8211156106ca576106c9610634565b5b6106d3826105aa565b9050602081019050919050565b82818337600083830152505050565b60006107026106fd846106af565b610694565b90508281526020810184848401111561071e5761071d61062f565b5b6107298482856106e0565b509392505050565b600082601f8301126107465761074561062a565b5b81356107568482602086016106ef565b91505092915050565b60006020828403121561077557610774610620565b5b600082013567ffffffffffffffff81111561079357610792610625565b5b61079f84828501610731565b91505092915050565b6000819050919050565b6107bb816107a8565b82525050565b60006020820190506107d660008301846107b2565b92915050565b7f4e487b7100000000000000000000000000000000000000000000000000000000600052602260045260246000fd5b6000600282049050600182168061082357607f821691505b602082108103610836576108356107dc565b5b50919050565b7f4e487b7100000000000000000000000000000000000000000000000000000000600052601160045260246000fd5b6000610876826107a8565b9150600082036108895761088861083c565b5b600182039050919050565b600061089f826107a8565b91507fffffffffffffffffffffffffffffffffffffffffffffffffffffffffffffffff82036108d1576108d061083c565b5b600182019050919050565b60008190508160005260206000209050919050565b60006020601f8301049050919050565b600082821b905092915050565b60006008830261093e7fffffffffffffffffffffffffffffffffffffffffffffffffffffffffffffffff82610901565b6109488683610901565b95508019841693508086168417925050509392505050565b6000819050919050565b600061098561098061097b846107a8565b610960565b6107a8565b9050919050565b6000819050919050565b61099f8361096a565b6109b36109ab8261098c565b84845461090e565b825550505050565b600090565b6109c86109bb565b6109d3818484610996565b505050565b5b818110156109f7576109ec6000826109c0565b6001810190506109d9565b5050565b601f821115610a3c57610a0d816108dc565b610a16846108f1565b81016020851015610a25578190505b610a39610a31856108f1565b8301826109d8565b50505b505050565b600082821c905092915050565b6000610a5f60001984600802610a41565b1980831691505092915050565b6000610a788383610a4e565b9150826002028217905092915050565b610a9182610564565b67ffffffffffffffff811115610aaa57610aa9610634565b5b610ab4825461080b565b610abf8282856109fb565b600060209050601f831160018114610af25760008415610ae0578287015190505b610aea8582610a6c565b865550610b52565b601f198416610b00866108dc565b60005b82811015610b2857848901518255600182019150602085019450602081019050610b03565b86831015610b455784890151610b41601f891682610a4e565b8355505b6001600288020188555050505b50505050505056fea264697066735822122087cc66046d30fd6318ecb2c04cea6d1cfc5005b28229b8c0de8bd551e2e06aa864736f6c63430008110033",
  "linkReferences": {},
  "deployedLinkReferences": {}
}